:020000040000FA
:020000001028C6
:10002000831606309F0088010F3086008500870008
:100030008113831288018701860183132030840095
:10004000051820280608B2000708070E32048800A9
:100050008000840A4B20880104082A3A031D2028C6
:100060008518402820308400000888004B20880133
:100070004B20840A04082A3A031D342888012028CA
:10008000051830280608B3000708070E3304880057
:100090004B20880130280830B000FF30B100B2009A
:0A00A000B20B5028B10B4F280800E6
:00000001FF
