:1000000000308A0019280000213084008313000882
:10001000031918280130F800F701F70B0D28F80B29
:100020000C284A30F700F70B13281628800B0A28F3
:10003000080003081F39830083161F149F141F151F
:100040009F1107309C008313FF30850086018312C7
:1000500086018316051483120518352883160610A9
:10006000831206146430A100042083160610831244
:10007000061083168514831285185A288316861055
:10008000831286146430A100042083168610831224
:1000900086106430A1000420831686108312861413
:1000A0006430A10004208316861083128610643009
:1000B000A1000420831605158312051989288316CB
:1000C0000611831206156430A10004208316061160
:1000D000831206116430A1000420831606118312D6
:1000E00006156430A1000420831606118312061140
:1000F0006430A100042083160611831206156430B3
:10010000A100042083160611831206116430A10099
:1001100004208316851583128519C6288316861137
:10012000831286156430A100042083168611831281
:1001300086116430A100042083168611831286156F
:100140006430A10004208316861183128611643066
:10015000A100042083168611831286156430A10045
:10016000042083168611831286116430A1000420B6
:1001700083168611831286156430A100042083162D
:100180008611831286116430A1000420292863009F
:02400E00713F00
:00000001FF
;PIC16F877A
;CRC=5DBA  CREATED="07-abr.-22 22:13"
