:1000000000308A001928000028308400831300087B
:10001000031918280130F800F701F70B0D28F80B29
:100020000C284A30F700F70B13281628800B0A28F3
:10003000080003081F39830083161F149F141F151F
:100040009F1107309C008313FF30860085008701D5
:100050008312860187018801831606148312061C09
:1000600033280130A100831686148312861C3A2897
:100070000230A200831606158312061D41280430A3
:10008000A300831686158312861D48280830A40015
:100090002208210723072407A6000310260CA70027
:1000A000831608148312081C71280130A500250846
:1000B0002602031C7128013087003C30A800042070
:1000C000023087003C30A8000420043087003C3018
:1000D000A8000420083087003C30A8000420A50AAE
:1000E0005728831688148312881CBE28260B79286B
:1000F00095282608033C031995282608053C031972
:1001000095282608073C031995282608093C031959
:10011000952826080B3C0319952826080D3C031941
:10012000952826080F3C031DA2280130A5002508AC
:100130002702031CA12887013C30A8000420A50A3F
:100140009728BE280130A50025082702031CBE28D9
:10015000083087003C30A8000420043087003C3081
:10016000A8000420023087003C30A80004200130A1
:1001700087003C30A8000420A50AA428A101A20100
:10018000A301A401A601A7011E30A80004202C2869
:0201900063000A
:02400E00713F00
:00000001FF
;PIC16F877A
;CRC=A428  CREATED="06-may.-22 11:33"
